S00C0000426169312E73726563DB
S11300000C942A000C9434000C9434000C943400A6
S11300100C9434000C9434000C9434000C9434008C
S11300200C9434000C9434000C9434000C9434007C
S11300300C9434000C9434000C9434000C9434006C
S11300400C9434000C9434000C9434000C9434005C
S11300500C94340011241FBECFE5D4E0DEBFCDBF25
S11300600E9436000C9449000C94000081B38E7FEA
S113007081BB81B3826081BB82B3816082BB82B366
S1130080826082BB8099FECF92B382E0892782BBD3
S1090090F9CFF894FFCF44
S9030000FC
