S00B00004C43442E7372656346
S11300000C942A000C943F000C943F000C943F0085
S11300100C943F000C943F000C943F000C943F0060
S11300200C943F000C943F000C943F000C943F0050
S11300300C943F000C943F000C943F000C943F0040
S11300400C943F000C943F000C943F000C943F0030
S11300500C943F0011241FBECFE5D4E0DEBFCDBF1A
S113006010E0A0E6B0E0ECE5F1E002C005900D92EE
S1130070A237B107D9F70E949B000C94AC000C94F2
S1130080000092B39F7D92BB92B39F7B92BB85BBD2
S113009082B3806882BB89EF90E00197F1F700C0DA
S11300A0000082B38F7782BB8DEE92E00197F1F767
S11300B000C00000089592B39F7D92BB92B39064F8
S11300C092BB85BB82B3806882BB89EF90E00197C5
S11300D0F1F700C0000082B38F7782BB89EF90E014
S11300E00197F1F700C0000008950F931F93CF9379
S11300F0DF938C01C0E0D0E003C00E945B00219636
S1130100F801EC0FFD1F80818111F7CFDF91CF91B2
S11301101F910F9108958FEF84BB81BB82B3806ED2
S113012082BB88E30E9441008CE00E94410081E090
S11301300E94410008950E948B0080E80E944100C3
S113014080E690E00E94750080EC0E9441008BE6FE
S10F015090E00E947500FFCFF894FFCFF0
S113015C48656C6C6F20444132600041414141411F
S105016C41004C
S9030000FC
